:1000000000300020E904000035050000390500003B
:1000100000000000000000000000000000000000E0
:100020000000000000000000000000003D0500008E
:10003000000000000000000041050000550C000019
:10004000BD0B00004D0500005105000055050000E6
:1000500031050000310500003105000031050000C8
:10006000590500005D050000610500006505000000
:10007000690500006D0500007105000031050000F4
:100080003105000031050000310500003105000098
:100090003105000031050000310500003105000088
:1000A0003105000031050000310500003105000078
:1000B0003105000031050000310500003105000068
:10040000FFFFFFFFFFFFFFFFFFFFFFFFFEFFFFFFFD
:1004100010B5064C2378002B07D1054B002B02D0DA
:10042000044800E000BF0123237010BD64F0FF1FEB
:1004300000000000A812000008B5084B002B03D0F4
:100440000748084900E000BF07480368002B03D0B5
:10045000064B002B00D0984708BDC04600000000A6
:10046000A812000068F0FF1F60F0FF1F00000000EE
:10047000164B002B00D1144B9D46402292029A1A33
:10048000924600218B460F461348144A121A00F078
:10049000A5FD0F4B002B00D098470E4B002B00D032
:1004A00098470020002104000D000D48002802D0CC
:1004B0000C4800E000BF00F06BFD2000290000F0B8
:1004C0008DFB00F04FFDC04600000800003000200A
:1004D000000000000000000064F0FF1FE0F0FF1FBC
:1004E000000000000000000072B60A480A490160DE
:1004F0000A6882F30888094880470949094A0A4B73
:100500009B1A03DD043BC858D050FBDC62B6074899
:100510008047000008ED00E000000000550F0000DB
:10052000D012000000F0FF1F64F0FF1F71040000F4
:10053000104800471048004710480047104800473F
:10054000104800471048004710480047104800472F
:10055000104800471048004710480047104800471F
:10056000104800471048004710480047104800470F
:10057000104800473105000035050000390500002E
:100580003D05000041050000550C0000A10C0000D5
:10059000F50C0000490D00009D0D0000F10D00005C
:1005A0002D0E0000850E0000D10E0000690E000027
:1005B0001D0F0000390F0000002934D00123002254
:1005C00010B488422CD301242407A14204D28142D2
:1005D00002D209011B01F8E7E400A14204D28142E2
:1005E00002D249005B00F8E7884201D3401A1A435F
:1005F0004C08A04202D3001B5C0822438C08A04296
:1006000002D3001B9C082243CC08A04202D3001B4B
:10061000DC082243002803D01B0901D00909E3E7C5
:10062000101C10BC7047002801D00020C04307B444
:10063000024802A14018029003BDC046D900000044
:100640000029F0D003B5FFF7B9FF0EBC4243891A69
:100650001847C046002941D010B4041C4C40A446A1
:1006600001230022002900D54942002800D540423C
:1006700088422CD301242407A14204D2814202D211
:1006800009011B01F8E7E400A14204D2814202D231
:1006900049005B00F8E7884201D3401A1A434C082E
:1006A000A04202D3001B5C0822438C08A04202D364
:1006B000001B9C082243CC08A04202D3001BDC088C
:1006C0002243002803D01B0901D00909E3E7101CCD
:1006D0006446002C00D5404210BC7047002806D06C
:1006E00003DB0020C043400801E08020000607B47F
:1006F000024802A14018029003BDC0461900000044
:100700000029EBD003B5FFF7A7FF0EBC4243891ABF
:100710001847C0467047C0460FB4F0B556464D4620
:100720005F464446F0B4C74E99B022993378894663
:10073000002B00D1DBE123AB069303930023CB56C0
:10074000002B00D1D6E1002104918B460D1C0291B3
:10075000252B74D100274B465A78581C54B2211CC3
:100760003039092964D98246904699462E2C00D109
:1007700003E1642C00D182E0692C00D17FE02023CA
:10078000414699434BB24246462B00D1A1E16F3A14
:10079000D2B29046582B00D16DE1012A00D86AE10F
:1007A000622C00D19FE1752C00D199E1632C00D11E
:1007B000D9E1732C00D0A0E10399039A0B680432AD
:1007C00005929946002B00D1DFE1181C00F00EFCC9
:1007D00002900390B84200DBDEE12023041C98461F
:1007E000337841460B91002B04D070680BA901228D
:1007F000B36898470134A742F2D103995F447F1A46
:100800004A461378002B00D1C2E1D41B5BB20C9393
:100810003378002B04D070680CA90122B368984784
:100820000137E35D002BF1D10599BB46039112E03E
:10083000BB00DF197F00303F3F19031C8CE7079393
:100840003378002B04D0706807A90122B368984759
:1008500001218B44CA46514601230122CB569146C1
:10086000D144002B00D073E7584619B03CBC9046E9
:100870009946A246AB46F0BC08BC04B018470399A1
:10088000039A043112680EAB00910021019299463F
:1008900019700125002A00D1D6E051464B46A246E8
:1008A000B9460391019C1F1C05E07B552B1C0135AB
:1008B000002814D0041C201C0A21FFF7CBFE830063
:1008C0001B185B00E41A30231A1B231C3033002C46
:1008D000EBDA131C7B552B1C01350028EAD102935F
:1008E00003993B1C029A4F46544699468A46434612
:1008F0006F3B151CDBB24D449846582C00D1BFE02D
:10090000782C00D105E101234146012940D9622C10
:100910003ED0009A0392752C3AD0029A974213DD8A
:100920002023141C9846337841460891002B04D0AC
:10093000706808A90122B36898470134A742F2D130
:1009400002995F44791A8B46002D00D183E72B78FA
:10095000002B00D17FE75C465BB209933378013D01
:10096000002B04D0706809A90122B36898472B783E
:100970000134002BF0D1A3466DE79B785CB298461A
:10098000231C303B092B6AD9031C01339A46F0E63D
:100990000099009A0431039115686F2C5CD04BDDEF
:1009A000702C56D0752C01D10A2104910EA9002279
:1009B00089460A70002D37D0B84601242F1C049DAB
:1009C000002B1CD100E0071C291C381CFFF7F4FD8C
:1009D0002B1C4343FB1A191C1A1C30315732092BAC
:1009E00000D80A1C49460A55231C01340028EAD1C4
:1009F00047460293191C0D1C4D448EE7071C291C09
:100A0000381CFFF7D9FD2B1C4343FB1A191C1A1C79
:100A100030313732092B00D80A1C4B461A55231C9B
:100A200001340028EAD1E3E76B46393330221A70EB
:100A300001230293191CDEE7622CB7D10221049135
:100A4000B4E7C04680F0FF1F30225A7001220292A4
:100A50004DE710220492A9E708220492A6E74B462C
:100A6000023301331A7854B2211C30390929F8D9DC
:100A700090469A467DE6039B0093582C00D03FE7B2
:100A80000099009B8C461A6804218C4400230EA90F
:100A900089460B70002A00D18BE04D460123A14608
:100AA00000E00A1C11090801121A141C101C303431
:100AB0003730092A00D8201CE8541A1C01330029B9
:100AC000EFD1634602924C460093A9460123029956
:100AD00046E043466F3B039ADBB2984600920CE730
:100AE000039B00930FE7039A012300920CE7012078
:100AF0004042BAE600229346B6E633780D94002BC6
:100B000004D070680DA90122B368984701218B4475
:100B1000A1E60099009B8C461A6804218C440023AE
:100B20000EA989460B70002A38D04D460123A146F4
:100B300000E00A1C11090801121A141C101C3034A0
:100B40005730092A00D8201CE8541A1C0133002908
:100B5000EFD161464C4600910292A9460023111C38
:100B60000D1C4D44D0E603990023CB56039C0A93F9
:100B700033780434002B04D070680AA90122B368CA
:100B8000984701218B44039465E6059A039262E637
:100B9000059BBB4603935EE65F4631E662460092E4
:100BA00000236A4630213932117001220292111C51
:100BB000D6E7614600910123F3E7C046054A842346
:100BC0005B00D058802149040143D150024B0122DF
:100BD0001A7070470080004090F0FF1F30B587B05A
:100BE000002303AC009303930493019323810293A6
:100BF00000F020F8084D201C2B680A2101220093E8
:100C000000F00CF82B6800200193019A009BD31A86
:100C1000029307B030BDC046DCF0FF1F10B50B1CBF
:100C2000041E05D0002903D0111C1A1C00F0D6F9AF
:100C3000201C10BD054B00221A60054B2F21596066
:100C40009A60196807220A431A607047DCF0FF1F98
:100C500010E000E0024B1A6801321A607047C0468B
:100C6000DCF0FF1F30B5051C0C1C83B00092191C72
:100C700003482A1C231CFFF74FFD00BEFDE7C046BA
:100C8000001000001E2108B50248FF31024A034B44
:100C9000FFF7E8FF5C100000C4110000981000008E
:100CA00008B5104B1868002812D002790368032A8F
:100CB00010D812019B180933FF331968802252049F
:100CC0000A431A608368002B01D0C168984708BDA9
:100CD000FFF7D8FFDA210448FF31044A044BFFF73D
:100CE000C1FFC04694F0FF1F8011000040100000BB
:100CF0009811000008B5104B5868002812D00279EE
:100D00000368032A10D812019B180933FF331968AE
:100D1000802252040A431A608368002B01D0C16804
:100D2000984708BDFFF7AEFFDA210448FF31044AB7
:100D3000044BFFF797FFC04694F0FF1F801100009F
:100D4000401000009811000008B5104B986800286A
:100D500012D002790368032A10D812019B180933B4
:100D6000FF331968802252040A431A608368002BFB
:100D700001D0C168984708BDFFF784FFDA21044815
:100D8000FF31044A044BFFF76DFFC04694F0FF1F8C
:100D900080110000401000009811000008B5104BB1
:100DA000D868002812D002790368032A10D81201EB
:100DB0009B180933FF331968802252040A431A60D2
:100DC0008368002B01D0C168984708BDFFF75AFF20
:100DD000DA210448FF31044A044BFFF743FFC046C1
:100DE00094F0FF1F801100004010000098110000D7
:100DF00008B50A480A4B1968C378DA0602D4837822
:100E00009A0606D5074B05481B689847BFF34F8FD6
:100E100008BD054B1B689847F8E7C04600600640D0
:100E2000A4F0FF1FACF0FF1FB0F0FF1F08B50A4889
:100E30000A4B5968C378DA0602D483789A0606D535
:100E4000074B05481B689847BFF34F8F08BD054BFC
:100E50001B689847F8E7C04600700640A4F0FF1FE3
:100E6000ACF0FF1FB0F0FF1F08B5034B0348196833
:100E7000034B1B68984708BDB4F0FF1F00A0064055
:100E8000B8F0FF1F08B50B4B196800290BD00A48B2
:100E90000378DA0603D4094B1B68984708BD084B52
:100EA0001B689847FAE781210648C900064A074BA4
:100EB000FFF7D8FEC4F0FF1F00600740BCF0FF1F23
:100EC000C0F0FF1FD411000070120000501200008B
:100ED00008B50B4B596800290BD00A480378DA068D
:100EE00003D4094B1B68984708BD084B1B689847FB
:100EF000FAE782210648C900064A074BFFF7B2FE0F
:100F0000C4F0FF1F00700740BCF0FF1FC0F0FF1FC0
:100F1000D4110000881200006012000008B5034BD5
:100F200003485968034B1B68984708BDD0F0FF1F62
:100F300000B00640CCF0FF1F08B5034B034899688A
:100F4000034B1B68984708BDD0F0FF1F00C0064048
:100F5000CCF0FF1F024A882300215B01D15070476B
:100F600000700440084B10B5041C002B02D0002177
:100F700000E000BF054B1868836A002B00D098473B
:100F8000201C00F03BF8C04600000000A412000046
:100F900070B50E4B0E4D0024ED1AAD101E1CAC4268
:100FA00004D0A300F35898470134F8E700F07CF927
:100FB000084B094D0024ED1AAD101E1CAC4204D0A4
:100FC000A300F35898470134F8E770BDC812000039
:100FD000C8120000C8120000CC120000031C8218C6
:100FE000934202D019700133FAE770470023C25CC4
:100FF0000133002AFBD1581E70470000FEE7C046AF
:10100000415353455254204552524F5220222025DD
:101010007320223A2066696C652022257322204CB9
:10102000696E6520222564222066756E6374696F7F
:101030006E206E616D652022257322200A0000005B
:10104000444D415F436C6561724368616E6E656CCF
:10105000537461747573466C616773002E2E2F6430
:101060007269766572732F66736C5F646D612E634F
:1010700000000000696E7374616E6365203C20415E
:10108000525241595F53495A4528735F646D61421A
:10109000617365732900000068616E646C652021CE
:1010A0003D204E554C4C00006368616E6E656C20AF
:1010B0003C2046534C5F464541545552455F444D94
:1010C000415F4D4F44554C455F4348414E4E454C62
:1010D00000000000636F6E66696720213D204E5559
:1010E0004C4C00007372634164647220213D204EB9
:1010F000554C4C00646573744164647220213D203A
:101100004E554C4C0000000028737263576964749C
:1011100068203D3D20315529207C7C202873726356
:101120005769647468203D3D20325529207C7C201D
:10113000287372635769647468203D3D20345529D3
:101140000000000028646573745769647468203D6A
:101150003D20315529207C7C2028646573745769B3
:10116000647468203D3D20325529207C7C20286411
:101170006573745769647468203D3D2034552900B7
:101180002E2E2F647269766572732F66736C5F649E
:101190006D612E68000000006368616E6E656C20F2
:1011A0003C2046534C5F464541545552455F444DA3
:1011B000414D55585F4D4F44554C455F4348414E56
:1011C0004E454C00444D415F48616E646C65495228
:1011D000510000002E2E2F647269766572732F669F
:1011E000736C5F7370692E6300000000696E737426
:1011F000616E6365203C2041525241595F53495A08
:101200004528735F7370694261736573290000003C
:1012100068616E646C650000636F6E6669672026A6
:101220002620737263436C6F636B5F487A00000023
:10123000636F6E6669670000786665720000000083
:1012400068616E646C6520262620786665720000F1
:10125000735F73706948616E646C655B305D00003C
:10126000735F73706948616E646C655B315D00002B
:10127000535049305F4472697665724952514861F2
:101280006E646C6572000000535049315F447269AE
:1012900076657249525148616E646C657200000057
:1012A0004300000000F0FF1FF8B5C046F8BC08BCC2
:1012B0009E467047F8B5C046F8BC08BC9E467047CD
:0812C000B0F1FF7F0100000006
:0412C80039040000E5
:0412CC001104000009
:1012D000000000000000000000000000000000000E
:1012E00000000000000000000000000000000000FE
:1012F000A01200000000000000000000000000003C
:1013000000000000000000000000000000000000DD
:1013100000000000000000000000000000000000CD
:1013200000000000000000000000000000000000BD
:0413300000000000B9
:1027B0000000000000000000000000000000000019
:1027C0000000000000000000000000000000000009
:1027D00000000000000000000000000000000000F9
:1027E00000000000000000000000000000000000E9
:043BB0000000000011
:04000003000004E90C
:00000001FF
