:1000000000300020E904000035050000390500003B
:1000100000000000000000000000000000000000E0
:100020000000000000000000000000003D0500008E
:10003000000000000000000041050000450F000026
:10004000810E00004D05000051050000550500001F
:1000500031050000310500003105000031050000C8
:10006000590500005D050000610500006505000000
:10007000690500006D0500007105000031050000F4
:100080003105000031050000310500003105000098
:100090003105000031050000310500003105000088
:1000A0003105000031050000310500003105000078
:1000B0003105000031050000310500003105000068
:10040000FFFFFFFFFFFFFFFFFFFFFFFFFEFFFFFFFD
:1004100010B5064C2378002B07D1054B002B02D0DA
:10042000044800E000BF0123237010BD68F0FF1FE7
:10043000000000006017000008B5084B002B03D037
:100440000748084900E000BF07480368002B03D0B5
:10045000064B002B00D0984708BDC04600000000A6
:10046000601700006CF0FF1F64F0FF1F0000000029
:10047000164B002B00D1144B9D46402292029A1A33
:10048000924600218B460F461348144A121A00F078
:1004900053FF0F4B002B00D098470E4B002B00D082
:1004A00098470020002104000D000D48002802D0CC
:1004B0000C4800E000BF00F005FF2000290000F01C
:1004C000F5FC00F0E9FEC046000008000030002006
:1004D000000000000000000068F0FF1FF4F0FF1FA4
:1004E000000000000000000072B60A480A490160DE
:1004F0000A6882F30888094880470949094A0A4B73
:100500009B1A03DD043BC858D050FBDC62B6074899
:100510008047000008ED00E00000000075120000B8
:100520008817000000F0FF1F68F0FF1F7104000033
:10053000104800471048004710480047104800473F
:10054000104800471048004710480047104800472F
:10055000104800471048004710480047104800471F
:10056000104800471048004710480047104800470F
:10057000104800473105000035050000390500002E
:100580003D05000041050000450F0000451000003A
:100590005D100000751000008D100000FD100000BF
:1005A0001D110000B5110000F11100003D11000007
:1005B0002D12000051120000002934D00123002226
:1005C00010B488422CD301242407A14204D28142D2
:1005D00002D209011B01F8E7E400A14204D28142E2
:1005E00002D249005B00F8E7884201D3401A1A435F
:1005F0004C08A04202D3001B5C0822438C08A04296
:1006000002D3001B9C082243CC08A04202D3001B4B
:10061000DC082243002803D01B0901D00909E3E7C5
:10062000101C10BC7047002801D00020C04307B444
:10063000024802A14018029003BDC046D900000044
:100640000029F0D003B5FFF7B9FF0EBC4243891A69
:100650001847C046002941D010B4041C4C40A446A1
:1006600001230022002900D54942002800D540423C
:1006700088422CD301242407A14204D2814202D211
:1006800009011B01F8E7E400A14204D2814202D231
:1006900049005B00F8E7884201D3401A1A434C082E
:1006A000A04202D3001B5C0822438C08A04202D364
:1006B000001B9C082243CC08A04202D3001BDC088C
:1006C0002243002803D01B0901D00909E3E7101CCD
:1006D0006446002C00D5404210BC7047002806D06C
:1006E00003DB0020C043400801E08020000607B47F
:1006F000024802A14018029003BDC0461900000044
:100700000029EBD003B5FFF7A7FF0EBC4243891ABF
:100710001847C0467047C0460FB480B582B000AFDE
:100720000D4B1B78002B02D101235B420DE03B1CDB
:1007300014333B6009493A693B68081C111C1A1CB8
:1007400000F0DAF8031C7B607B68181CBD4602B021
:1007500080BC08BC04B0184784F0FF1F610700008C
:1007600090B583B000AF78600A4B1B78002B02D1A4
:1007700001235B4209E0074B9C68064B5A683B1D0E
:10078000101C191C0122A0470123181CBD4603B0F0
:1007900090BDC04684F0FF1F80B586B000AFB96041
:1007A0007A603B603B1C0F33021C1A70BB687B6194
:1007B0000EE03B1C0F3300229A563B6A101C9847F0
:1007C0003B681B685A1C3B681A607B6901337B617C
:1007D0007A697B689A42ECDBBD4606B080BDC046B4
:1007E00080B58CB000AFF860B9607A603B600023E0
:1007F000FB61FB68BB61BB695A1CBA6100221A70BD
:100800007B68002B36D0BB681B68FB62FB6A002B41
:1008100007D1BB6930221A70FB690133FB61FB69A8
:1008200066E023E0F86A3968FFF714FF031C7B6178
:100830007B693A685343FA6AD31ABB62BB6A002BDE
:1008400006DABB6A3B623B6A3022D31ABB6202E023
:10085000BB6A3033BB627B69FB62BB695A1CBA61FD
:10086000BA6AD2B21A70FB690133FB61FB6A002BD2
:10087000D8D13CE0BB681B687B627B6A002B07D148
:10088000BB6930221A70FB690133FB61FB692FE001
:100890002AE03B68786A191CFFF78EFE031C3B6157
:1008A0003B683A6953437A6AD31A3B623B6A092B25
:1008B00003D83B6A30333B620BE03B1C38331B7878
:1008C000002B01D0412300E061233A6A9B180A3BC8
:1008D0003B623B697B62BB695A1CBA613A6AD2B21D
:1008E0001A70FB690133FB617B6A002BD1D1FB6974
:1008F000181CBD460CB080BD80B59CB002AFF8603E
:10090000B9607A6000233B660023FB650023BB616E
:100910003B1C4A3300221A7000233B61BB687B6694
:100920007FE17B6C252B07D07A6CFB68101C984705
:10093000BB690133BB6171E13B1C4B3301221A706F
:1009400000237B650023BB651CE07B6E01337B6667
:100950007B6E1B785BB27B647B6C2F2B0DDD7B6C1D
:10096000392B0ADC7A6D131C9B009B185B001A1C48
:100970007B6CD318303B7B6504E07B6E013B7B6670
:100980000123BB65BB6D002BDFD006233B657B6E6F
:1009900001337B667B6E1B785BB22E2B25D1002347
:1009A0003B650023BB651CE07B6E01337B667B6E81
:1009B0001B785BB27B647B6C2F2B0DDD7B6C392B42
:1009C0000ADC3A6D131C9B009B185B001A1C7B6CA5
:1009D000D318303B3B6504E07B6E013B7B66012313
:1009E000BB65BB6D002BDFD002E07B6E013B7B66FD
:1009F0007B6E01337B667B6E1B785BB27B647B6CAA
:100A0000642B1BD07B6C692B18D07B6C662B15D0AC
:100A10007B6C462B12D07B6C782B0FD07B6C582BC9
:100A20000CD07B6C6F2B09D07B6C622B06D07B6C5F
:100A3000702B03D07B6C752B00D0ABE07B6C642BF0
:100A400002D07B6C692B19D17B681A1D7A601B68F8
:100A50007B613A1C1C323B1C1433391C4B31097826
:100A60000091101C191C01220A23FFF7B9FE031C78
:100A7000FB653A1C1C32FB6DD3183B667B6C582B14
:100A800002D07B6C782B20D17B6C782B03D13B1C64
:100A90004B3300221A707B681A1D7A601B683B6119
:100AA0003A1C1C323B1C1033391C4B310978009125
:100AB000101C191C00221023FFF792FE031CFB657B
:100AC0003A1C1C32FB6DD3183B667B6C6F2B08D035
:100AD0007B6C622B05D07B6C702B02D07B6C752BF2
:100AE0003BD17B681A1D7A601B683B617B6C6F2B66
:100AF00008D002DC622B0AD018E0702B0CD0752BCA
:100B00000FD013E03B1C4A3308221A700EE03B1C46
:100B10004A3302221A7009E03B1C4A3310221A7031
:100B200004E03B1C4A330A221A70C0463B1C4A337D
:100B30001B78391C1C313A1C1032381C4B300078A1
:100B40000090081C111C0022FFF74AFE031CFB65E5
:100B50003A1C1C32FB6DD3183B667A6DF96D3B1C59
:100B60001833F86800902020FFF716FE3B6E002B2C
:100B70000FD00AE03B6E5A1E3A661B785AB2FB68E9
:100B8000101C9847BB690133BB613B6E1B78002B7F
:100B9000F0D143E07B6C632B0ED17B681A1D7A6029
:100BA0001B68DBB25BB23B643A6CFB68101C984775
:100BB000BB690133BB6131E07B6C732B27D17B6850
:100BC0001A1D7A601B68FB64FB6C002B26D0FB6C43
:100BD000181C00F067FC031CFB657A6DF96D3B1C6B
:100BE0001833F86800902020FFF7D6FD0AE0FB6C70
:100BF0005A1CFA641B785AB2FB68101C9847BB69F0
:100C00000133BB61FB6C1B78002BF0D106E07A6CE2
:100C1000FB68101C9847BB690133BB617B6E0133D5
:100C20007B667B6E1B785BB27B647B6C002B00D099
:100C300077E6BB69181CBD461AB080BD80B584B08C
:100C400000AF7860114B1B68002B02D10F4B104A8C
:100C50001A600E4B1B68FB600C4B1A687B68D2183D
:100C60000C4B9A4207D900F011FB031C0C221A60AE
:100C700001235B4206E0054B1A687B68D218034BE0
:100C80001A60FB68181CBD4604B080BD94F0FF1FBD
:100C9000F8F0FF1FF804002080B582B000AF021CFE
:100CA000FB1D1A70064BFA1D1278111C1F220A40F8
:100CB0000121081C9040021C1A60BD4602B080BD94
:100CC00000E100E080B584B000AFF860B9607A6000
:100CD000FB68002B01D1BB68BDE0BB68002B01D1D4
:100CE000BB68B8E0FA68BB689A4201D1BB68B2E061
:100CF0007B68181C00F00CFB031C1A1C584B1A6074
:100D0000584A584982235B01CB5880214900194336
:100D100082235B01D150534A5249534BCB58022195
:100D20001943514BD1500020FFF7B6FF4F4B002223
:100D30001A704F4A4E4986235B00C9584D4B1940E3
:100D400086235B00D150494BBC221A70484AF9688F
:100D500080235B00D150464A414B1B68191C8223FB
:100D60005B00D150424A7B681B02190A84235B0056
:100D7000D1503F4A86235B00D3583D4A86235B000F
:100D80000021D1503A4A3A4986235B00CB583A4970
:100D9000194386235B00D150354A354986235B00D1
:100DA000CB5880214902194386235B00D150C046AD
:100DB000324B1B78002BFBD0304B00221A702C4A90
:100DC0002B4986235B00C9582A4B194086235B00B8
:100DD000D150264B00221A70244BBC221A70244A90
:100DE0001F4B1B68191C80235B00D150204AB96837
:100DF00082235B00D1501E4A7B681B02190A8423A0
:100E00005B00D1501A4A86235B00D358184A8623C8
:100E10005B000021D150164A154986235B00CB5850
:100E20001549194386235B00D150114A1049862386
:100E30005B00CB5880214902194386235B00D150C7
:100E4000C0460E4B1B78002BFBD0054B1B68181CB3
:100E500000F068FABB68181CBD4604B080BDC046EF
:100E6000F8040020007004403C1000000010024014
:100E700000800040FFFFC8FF00004A8098F0FF1F7D
:100E800080B500AF074A074984235B00CB58802117
:100E90004904194384235B00D150034B01221A708B
:100EA000BD4680BD0080004098F0FF1F80B51D4FFB
:100EB000BD4400AF1C497B1800221A801A4ABB1897
:100EC00000221A8018E018497B181B88174A184915
:100ED000C9198A180121D154134ABB181B88154A15
:100EE0001349C9198A180021D1540F4ABB181A880E
:100EF0000D497B1801321A800B4ABB181A880E4B19
:100F00009A42E0D90D4BF9183A1D0D4B081C111CE3
:100F10001A1CFFF7D7FE0023181CBD46044B9D4446
:100F200080BDC046E8D8FFFF1627000074ECFFFF25
:100F300018270000ECD8FFFF871300008C13000077
:100F40008813000080B500AF034B1B685A1C024B8E
:100F50001A60BD4680BDC046ECF0FF1F90B587B05B
:100F600002AFF860B9607A603B6005483968FA689A
:100F7000BB687C680094FFF7CFFB00BEFDE7C0466E
:100F8000B814000080B584B000AFF860B9607A6032
:100F9000BB68032B07D91048DA23191CFF310F4A0D
:100FA0000F4BFFF7DBFF7B68002B12D0F968BA68A4
:100FB00084235B0012018A18D3181B688022520414
:100FC0001A43F868B96884235B0009014118CB18FB
:100FD0001A60BD4604B080BDF81400000C17000074
:100FE0001015000080B582B000AF78607B68002BE0
:100FF00007D111481E23191CFF31104A104BFFF76F
:10100000ADFF7B6819687B681B791A1C80235B0421
:10101000081C111C1A1CFFF7B5FF7B689B68002B8E
:1010200007D07B689A687B68DB687968081C191CA4
:101030009047BD4602B080BD3C150000FC16000084
:10104000B415000080B500AF034B1B68181CFFF7F8
:10105000C9FFBD4680BDC0469CF0FF1F80B500AFF4
:10106000034B5B68181CFFF7BDFFBD4680BDC04643
:101070009CF0FF1F80B500AF034B9B68181CFFF767
:10108000B1FFBD4680BDC0469CF0FF1F80B500AFDC
:10109000034BDB68181CFFF7A5FFBD4680BDC046AB
:1010A0009CF0FF1F80B582B000AF786039607B682C
:1010B000DB78DBB21A1C1023134006D17B689B78C7
:1010C000DBB21A1C2023134007D00A4B1B68796837
:1010D0003A68081C111C984706E0074B1B687968A2
:1010E0003A68081C111C9847BFF34F8FBD4602B0E9
:1010F00080BDC046B4F0FF1FB8F0FF1F80B500AF41
:10110000044B1B68044A101C191CFFF7CBFFBD469B
:1011100080BDC046ACF0FF1F0060064080B500AF48
:10112000044B5B68044A101C191CFFF7BBFFBD464B
:1011300080BDC046ACF0FF1F0070064080B500AF18
:10114000044B1A68044B1B680449081C191C90477F
:10115000BD4680BDC0F0FF1FBCF0FF1F00A00640D1
:1011600080B582B000AF786039607B681B78DBB2F5
:101170001A1C102313400AD00B4B1B680B4A39680A
:1011800089008A587968081C111C984709E0084BA7
:101190001B68064A396889008A587968081C111C3E
:1011A0009847BD4602B080BDCCF0FF1FC4F0FF1FC2
:1011B000D0F0FF1F80B500AF084B1B68002B06D195
:1011C00007488123D900074A074BFFF7C7FE074BA3
:1011D000181C0021FFF7C4FFBD4680BDC4F0FF1FEF
:1011E0006016000028170000DC16000000600740B1
:1011F00080B500AF084B5B68002B06D107488223FF
:10120000D900074A074BFFF7A9FE074B181C01211D
:10121000FFF7A6FFBD4680BDC4F0FF1F60160000AB
:1012200040170000EC1600000070074080B500AFCA
:10123000044B1A68044B5B680449081C191C90474E
:10124000BD4680BDE0F0FF1FD4F0FF1F00B0064098
:1012500080B500AF044B1A68044B9B680449081C16
:10126000191C9047BD4680BDE0F0FF1FD4F0FF1F62
:1012700000C0064080B500AF034A88235B0100210F
:10128000D150BD4680BDC04600700440014B186877
:101290007047C04660F0FF1F084B10B5041C002BC0
:1012A00002D0002100E000BF054B1868836A002BC4
:1012B00000D09847201C00F0FDF8C0460000000058
:1012C0005C17000070B50E4B0E4D0024ED1AAD10EA
:1012D0001E1CAC4204D0A300F35898470134F8E731
:1012E00000F03EFA084B094D0024ED1AAD101E1C0B
:1012F000AC4204D0A300F35898470134F8E770BD1E
:10130000801700008017000080170000841700007D
:1013100008B5034B011C186800F05EF808BDC04614
:1013200060F0FF1F08B5034B011C186800F00CF8B3
:1013300008BDC04660F0FF1F031C8218934202D014
:1013400019700133FAE7704730B5002940D00439ED
:101350000B68002B00DAC9181E4A1368141C002BF6
:1013600002D14B60116033E099420FD208680A182D
:101370009A4205D113685268C01808604A6000E0BC
:101380004B60216024E08A4203D8131C5A68002A6B
:10139000F9D11D685C198C420BD10968691858187D
:1013A0001960904214D114685268091919605A6082
:1013B0000EE08C4202D90C23036009E008680C1887
:1013C000944203D114685268001908604A60596059
:1013D00030BDC046E8F0FF1F70B50323CD1C9D4310
:1013E0000835061C0C2D01D20C2501E0002D3FDB39
:1013F0008D423DD3204B1C681A1C211C002913D0A0
:101400000868431B0DD40B2B02D90B60CC181EE0CF
:101410008C4202D1636813601AE0486860600C1C5B
:1014200016E00C1C4968E9E7144C2068002803D139
:10143000301C00F025F82060301C291C00F020F83A
:10144000431C15D0C41C03239C4384420AD125604D
:10145000201C0B300722231D9043C31A0BD05A4285
:10146000E25008E0211A301C00F00AF80130EED1F9
:101470000C233360002070BDE8F0FF1FE4F0FF1F75
:1014800038B5074C0023051C081C2360FFF7D6FB6A
:10149000431C03D12368002B00D02B6038BDC0460D
:1014A000F0F0FF1F0023C25C0133002AFBD1581E5D
:1014B00070470000FEE7C046415353455254204553
:1014C00052524F52202220257320223A2066696C06
:1014D000652022257322204C696E65202225642216
:1014E0002066756E6374696F6E206E616D65202273
:1014F000257322200A0000002E2E2F647269766563
:1015000072732F66736C5F646D612E68000000005B
:101510006368616E6E656C203C2046534C5F4645A7
:1015200041545552455F444D414D55585F4D4F44D0
:10153000554C455F4348414E4E454C002E2E2F647E
:101540007269766572732F66736C5F646D612E636A
:1015500000000000696E7374616E6365203C204179
:10156000525241595F53495A4528735F646D614235
:1015700061736573290000006368616E6E656C209D
:101580003C2046534C5F464541545552455F444DBF
:10159000415F4D4F44554C455F4348414E4E454C8D
:1015A00000000000636F6E66696720213D204E5584
:1015B0004C4C000068616E646C6520213D204E55E6
:1015C0004C4C00007372634164647220213D204ED4
:1015D000554C4C00646573744164647220213D2055
:1015E0004E554C4C000000002873726357696474B8
:1015F00068203D3D20315529207C7C202873726372
:101600005769647468203D3D20325529207C7C2038
:10161000287372635769647468203D3D20345529EE
:101620000000000028646573745769647468203D85
:101630003D20315529207C7C2028646573745769CE
:10164000647468203D3D20325529207C7C2028642C
:101650006573745769647468203D3D2034552900D2
:101660002E2E2F647269766572732F66736C5F73AA
:1016700070692E6300000000696E7374616E6365AB
:10168000203C2041525241595F53495A4528735FCB
:10169000737069426173657329000000636F6E6641
:1016A000696720262620737263436C6F636B5F4803
:1016B0007A000000636F6E66696700007866657285
:1016C0000000000068616E646C65000068616E6413
:1016D0006C6520262620786665720000735F737043
:1016E0006948616E646C655B305D0000735F7370A8
:1016F0006948616E646C655B315D0000444D415F1B
:1017000048616E646C65495251000000444D415F70
:10171000436C6561724368616E6E656C537461748D
:101720007573466C61677300535049305F4472694A
:1017300076657249525148616E646C6572000000B2
:10174000535049315F44726976657249525148611C
:101750006E646C65720000004300000000F0FF1F23
:10176000F8B5C046F8BC08BC9E467047F8B5C04600
:08177000F8BC08BC9E4670475E
:08177800F8ECFF7F0100000006
:041780003904000028
:04178400110400004C
:101788000000000000000000000000000000000051
:101798000000000000000000000000000000000041
:1017A80058170000000000000000000000000000C2
:1017B8000000000000000000000000000000000021
:1017C8000000000000000000000000000000000011
:1017D8000000000000000000000000000000000001
:0817E80000F0FF1F00000000EB
:102C80000000000000000000000000000000000044
:102C90000000000000000000000000000000000034
:102CA0000000000000000000000000000000000024
:102CB0000000000000000000000000000000000014
:04408000000000003C
:04000003000004E90C
:00000001FF
