:1000000000300020E904000035050000390500003B
:1000100000000000000000000000000000000000E0
:100020000000000000000000000000003D0500008E
:10003000000000000000000041050000E512000083
:100040000D0E00004D050000510500005505000093
:1000500031050000310500003105000031050000C8
:10006000590500005D050000610500006505000000
:100070007D1300006D0500007105000031050000D2
:100080003105000031050000310500003105000098
:1000900031050000650C000031050000310500004D
:1000A0003105000031050000310500003105000078
:1000B0003105000031050000310500003105000068
:10040000FFFFFFFFFFFFFFFFFFFFFFFFFEFFFFFFFD
:1004100010B5064C2378002B07D1054B002B02D0DA
:10042000044800E000BF0123237010BD6CF0FF1FE3
:1004300000000000501B000008B5084B002B03D043
:100440000748084900E000BF07480368002B03D0B5
:10045000064B002B00D0984708BDC04600000000A6
:10046000501B000070F0FF1F68F0FF1F000000002D
:10047000164B002B00D1144B9D46402292029A1A33
:10048000924600218B460F461348144A121A01F077
:10049000C6F90F4B002B00D098470E4B002B00D015
:1004A00098470020002104000D000D48002802D0CC
:1004B0000C4800E000BF01F083F92000290000F0A3
:1004C0000BFD01F067F9C046000008000030002075
:1004D00000000000000000006CF0FF1F10F1FF1F83
:1004E000000000000000000072B60A480A490160DE
:1004F0000A6882F30888094880470949094A0A4B73
:100500009B1A03DD043BC858D050FBDC62B6074899
:100510008047000008ED00E0000000007D170000AB
:10052000781B000000F0FF1F6CF0FF1F710400003B
:10053000104800471048004710480047104800473F
:10054000104800471048004710480047104800472F
:10055000104800471048004710480047104800471F
:10056000104800471048004710480047104800470F
:10057000104800473105000035050000390500002E
:100580003D05000041050000E51200004D1500008A
:10059000651500007D15000095150000051600008A
:1005A00025160000BD160000F916000045160000D3
:1005B0003517000059170000002934D0012300220C
:1005C00010B488422CD301242407A14204D28142D2
:1005D00002D209011B01F8E7E400A14204D28142E2
:1005E00002D249005B00F8E7884201D3401A1A435F
:1005F0004C08A04202D3001B5C0822438C08A04296
:1006000002D3001B9C082243CC08A04202D3001B4B
:10061000DC082243002803D01B0901D00909E3E7C5
:10062000101C10BC7047002801D00020C04307B444
:10063000024802A14018029003BDC046D900000044
:100640000029F0D003B5FFF7B9FF0EBC4243891A69
:100650001847C046002941D010B4041C4C40A446A1
:1006600001230022002900D54942002800D540423C
:1006700088422CD301242407A14204D2814202D211
:1006800009011B01F8E7E400A14204D2814202D231
:1006900049005B00F8E7884201D3401A1A434C082E
:1006A000A04202D3001B5C0822438C08A04202D364
:1006B000001B9C082243CC08A04202D3001BDC088C
:1006C0002243002803D01B0901D00909E3E7101CCD
:1006D0006446002C00D5404210BC7047002806D06C
:1006E00003DB0020C043400801E08020000607B47F
:1006F000024802A14018029003BDC0461900000044
:100700000029EBD003B5FFF7A7FF0EBC4243891ABF
:100710001847C0467047C0460FB480B582B000AFDE
:100720000D4B1B78002B02D101235B420DE03B1CDB
:1007300014333B6009493A693B68081C111C1A1CB8
:1007400000F0DAF8031C7B607B68181CBD4602B021
:1007500080BC08BC04B0184788F0FF1F6107000088
:1007600090B583B000AF78600A4B1B78002B02D1A4
:1007700001235B4209E0074B9C68064B5A683B1D0E
:10078000101C191C0122A0470123181CBD4603B0F0
:1007900090BDC04688F0FF1F80B586B000AFB9603D
:1007A0007A603B603B1C0F33021C1A70BB687B6194
:1007B0000EE03B1C0F3300229A563B6A101C9847F0
:1007C0003B681B685A1C3B681A607B6901337B617C
:1007D0007A697B689A42ECDBBD4606B080BDC046B4
:1007E00080B58CB000AFF860B9607A603B600023E0
:1007F000FB61FB68BB61BB695A1CBA6100221A70BD
:100800007B68002B36D0BB681B68FB62FB6A002B41
:1008100007D1BB6930221A70FB690133FB61FB69A8
:1008200066E023E0F86A3968FFF714FF031C7B6178
:100830007B693A685343FA6AD31ABB62BB6A002BDE
:1008400006DABB6A3B623B6A3022D31ABB6202E023
:10085000BB6A3033BB627B69FB62BB695A1CBA61FD
:10086000BA6AD2B21A70FB690133FB61FB6A002BD2
:10087000D8D13CE0BB681B687B627B6A002B07D148
:10088000BB6930221A70FB690133FB61FB692FE001
:100890002AE03B68786A191CFFF78EFE031C3B6157
:1008A0003B683A6953437A6AD31A3B623B6A092B25
:1008B00003D83B6A30333B620BE03B1C38331B7878
:1008C000002B01D0412300E061233A6A9B180A3BC8
:1008D0003B623B697B62BB695A1CBA613A6AD2B21D
:1008E0001A70FB690133FB617B6A002BD1D1FB6974
:1008F000181CBD460CB080BD80B59CB002AFF8603E
:10090000B9607A6000233B660023FB650023BB616E
:100910003B1C4A3300221A7000233B61BB687B6694
:100920007FE17B6C252B07D07A6CFB68101C984705
:10093000BB690133BB6171E13B1C4B3301221A706F
:1009400000237B650023BB651CE07B6E01337B6667
:100950007B6E1B785BB27B647B6C2F2B0DDD7B6C1D
:10096000392B0ADC7A6D131C9B009B185B001A1C48
:100970007B6CD318303B7B6504E07B6E013B7B6670
:100980000123BB65BB6D002BDFD006233B657B6E6F
:1009900001337B667B6E1B785BB22E2B25D1002347
:1009A0003B650023BB651CE07B6E01337B667B6E81
:1009B0001B785BB27B647B6C2F2B0DDD7B6C392B42
:1009C0000ADC3A6D131C9B009B185B001A1C7B6CA5
:1009D000D318303B3B6504E07B6E013B7B66012313
:1009E000BB65BB6D002BDFD002E07B6E013B7B66FD
:1009F0007B6E01337B667B6E1B785BB27B647B6CAA
:100A0000642B1BD07B6C692B18D07B6C662B15D0AC
:100A10007B6C462B12D07B6C782B0FD07B6C582BC9
:100A20000CD07B6C6F2B09D07B6C622B06D07B6C5F
:100A3000702B03D07B6C752B00D0ABE07B6C642BF0
:100A400002D07B6C692B19D17B681A1D7A601B68F8
:100A50007B613A1C1C323B1C1433391C4B31097826
:100A60000091101C191C01220A23FFF7B9FE031C78
:100A7000FB653A1C1C32FB6DD3183B667B6C582B14
:100A800002D07B6C782B20D17B6C782B03D13B1C64
:100A90004B3300221A707B681A1D7A601B683B6119
:100AA0003A1C1C323B1C1033391C4B310978009125
:100AB000101C191C00221023FFF792FE031CFB657B
:100AC0003A1C1C32FB6DD3183B667B6C6F2B08D035
:100AD0007B6C622B05D07B6C702B02D07B6C752BF2
:100AE0003BD17B681A1D7A601B683B617B6C6F2B66
:100AF00008D002DC622B0AD018E0702B0CD0752BCA
:100B00000FD013E03B1C4A3308221A700EE03B1C46
:100B10004A3302221A7009E03B1C4A3310221A7031
:100B200004E03B1C4A330A221A70C0463B1C4A337D
:100B30001B78391C1C313A1C1032381C4B300078A1
:100B40000090081C111C0022FFF74AFE031CFB65E5
:100B50003A1C1C32FB6DD3183B667A6DF96D3B1C59
:100B60001833F86800902020FFF716FE3B6E002B2C
:100B70000FD00AE03B6E5A1E3A661B785AB2FB68E9
:100B8000101C9847BB690133BB613B6E1B78002B7F
:100B9000F0D143E07B6C632B0ED17B681A1D7A6029
:100BA0001B68DBB25BB23B643A6CFB68101C984775
:100BB000BB690133BB6131E07B6C732B27D17B6850
:100BC0001A1D7A601B68FB64FB6C002B26D0FB6C43
:100BD000181C00F02CFE031CFB657A6DF96D3B1CA4
:100BE0001833F86800902020FFF7D6FD0AE0FB6C70
:100BF0005A1CFA641B785AB2FB68101C9847BB69F0
:100C00000133BB61FB6C1B78002BF0D106E07A6CE2
:100C1000FB68101C9847BB690133BB617B6E0133D5
:100C20007B667B6E1B785BB27B647B6C002B00D099
:100C300077E6BB69181CBD461AB080BD80B582B08E
:100C400000AF78607A68131C5B009B181B017B6007
:100C500002E07B68013B7B607B68002BF9D1BD46DD
:100C600002B080BD90B587B000AF264B254A5269CF
:100C700010218A435A61234B234A5A60214B214A4F
:100C8000526910210A435A61204B1B685A1C1F4BA2
:100C90001A601E4B1A681E4B1A601E4B1B687B6144
:100CA0003B1D1B4A13CA13C312681A607B69002BD1
:100CB00024D07B691A697B69DB689A421ED272B6BE
:100CC0007B695A687B695B699A4204D17B691A68BF
:100CD0007B695A6005E07B695B681A1C10327B698E
:100CE0005A607B695B683A1D13CA13C312681A60A5
:100CF0007B691B695A1C7B691A6162B6BD4607B0E5
:100D000090BDC04600D00340187C000098F0FF1F43
:100D1000E8F0FF1F1405002080B582B000AF7860B6
:100D20000A1CFB1C1A707B68002B01D1042322E0F3
:100D30007B681A697B68DB689A421BD27B685A68B9
:100D40007B685B699A4204D17B681A687B685A6049
:100D500004E07B685B685A1C7B685A607B685B6850
:100D6000FA1C12781A707B681B695A1C7B681A611E
:100D7000002300E00123181CBD4602B080BDC04620
:100D800080B582B000AF786039607B68002B02D0FC
:100D90003B68002B01D1042320E07B681B69002BFA
:100DA0001BD07B689A687B685B699A4204D17B6838
:100DB0001A687B689A6004E07B689B685A1C7B68B1
:100DC0009A607B689B681A783B681A707B681B691D
:100DD0005A1E7B681A61002300E00223181CBD46DE
:100DE00002B080BD80B582B000AF78607B68002B18
:100DF00001D1042306E07B681B69002B01D102238B
:100E000000E00023181CBD4602B080BD80B500AFD5
:100E1000074A074984235B00CB58802149041943C2
:100E200084235B00D150034B01221A70BD4680BD64
:100E3000008000409CF0FF1F80B500AF214A21498F
:100E4000214BCB588021090119431F4BD1501D4A1A
:100E50001C491E4BCB588021C90319431B4BD15051
:100E60001B4B802252005A621A4B1A4A5269802147
:100E700089000A435A61174B164A5268802189003B
:100E80000A435A60124B80225200DA62114B114A17
:100E90005269802109010A435A610E4B0D4A52687A
:100EA000802109010A435A60094B802292005A614D
:100EB000074B802292009A61054B80229200DA61F2
:100EC000BD4680BD007004403810000034100000A2
:100ED00000B0044080F00F4080B588B000AFFFF74D
:100EE000ABFF00F0AFF96420FFF7A8FE3A1D2F4BCF
:100EF000111C1A1C0523081C111C1A1C00F086FC6E
:100F000000F0D2F8031C1A1C3B1C14331A7000F0BA
:100F1000B1F8031C1A1C3B1C14335A70012000F05A
:100F2000B3F800F0C1F8031C1A1C3B1C14339A7070
:100F300000F0C4F8031C1A1C3B1C1433DA700120A7
:100F400000F0C6F800F0B0F8031C1A1C3B1C143368
:100F50001A7100F0CDF8031C1A1C3B1C14335A7193
:100F6000012000F0CFF800F0C3F8031C1A1C3B1C52
:100F700014339A713B1C0C33181C00F0D3F83B1D42
:100F8000181C00F01BF93B1C0C33181C00F0CAF8AD
:100F900000F04EF9031C1A1C3B1C14331A70FA2380
:100FA0009B00181CFFF74AFEFEE7C04640180000F1
:100FB00080B584B000AF021CFB1D1A70164B164A98
:100FC0009268802189000A439A60FB1D1B78181CD7
:100FD00000F070F9FF2000F06DF93B1C0F33181C76
:100FE00000F052F9FF2000F065F93B1C0F33181C8C
:100FF00000F04AF90A20FFF721FE074B064A526823
:10100000802189000A435A603B1C0F331B78181C4F
:10101000BD4604B080BDC04680F00F4080B582B0B0
:1010200000AF0A1CFB1D011C1970BB1D1A70104B70
:101030000F4A9268802189000A439A60FB1D1B7841
:1010400020221343DBB2181C00F034F9BB1D1B78BF
:10105000181C00F02FF90A20FFF7F0FD044B044A9A
:101060005268802189000A435A60BD4602B080BDA3
:1010700080F00F4080B500AF0720FFF799FF031CF9
:10108000181CBD4680BDC04680B582B000AF021CB2
:10109000FB1D1A70FB1D1B780020191CFFF7BEFFFB
:1010A000BD4602B080BDC04680B500AF0020FFF74E
:1010B0007FFF031C181CBD4680BDC04680B500AF35
:1010C0000620FFF775FF031C181CBD4680BDC046F7
:1010D00080B582B000AF021CFB1D1A70FB1D1B788F
:1010E0000620191CFFF79AFFBD4602B080BDC0461E
:1010F00080B500AF0520FFF75BFF031C181CBD4641
:1011000080BDC04680B582B000AF021CFB1D1A70C6
:10111000FB1D1B780520191CFFF780FFBD4602B0A0
:1011200080BDC04680B582B000AF7860224B224AB5
:101130009268802189000A439A60102000F0BAF872
:10114000FF2000F0B7F87B68181C00F09DF8FF2026
:1011500000F0B0F87B68181C00F096F8FF2000F053
:10116000A9F87B680133181C00F08EF8FF2000F00E
:10117000A1F87B680233181C00F086F8FF2000F00D
:1011800099F87B680333181C00F07EF8FF2000F00C
:1011900091F87B680433181C00F076F80A20FFF7FA
:1011A0004DFD054B044A5268802189000A435A606C
:1011B000BD4602B080BDC04680F00F4080B582B011
:1011C00000AF7860194B194A9268802189000A4360
:1011D0009A60302000F06EF87B6804331B78181C8E
:1011E00000F068F87B681B78181C00F063F87B68D7
:1011F00001331B78181C00F05DF87B6802331B7804
:10120000181C00F057F87B6803331B78181C00F09B
:1012100051F80A20FFF712FD044B044A526880215E
:1012200089000A435A60BD4602B080BD80F00F407D
:1012300080B500AF1720FFF7BBFE031C181CBD468E
:1012400080BDC04680B500AF0E4B10221A700D4B0A
:101250000C4A5278D1B240220A40D2B25A70094B9D
:10126000084A9278D2B22D218A43D2B29A70054BA5
:10127000044A1278D2B240210A43D2B21A70BD4653
:1012800080BDC0460060074080B582B000AF786086
:10129000C046074BDB78DBB2DBB25BB2002BF8DA7F
:1012A000034B5B79DAB27B681A70BD4602B080BD31
:1012B0000060074080B582B000AF021CFB1D1A70B1
:1012C000C046074BDB78DBB21A1C20231340F8D052
:1012D000034BFA1D12785A71BD4602B080BDC0465C
:1012E0000060074080B500AF034B1B685A1C024BDF
:1012F0001A60BD4680BDC046F8F0FF1F80B582B0C1
:1013000000AF7860C046084B1B79DBB2DBB25BB242
:10131000002BF8DA044B7A681278DA710023181C73
:10132000BD4602B080BDC04600A0064080B582B078
:1013300000AF786039607B68002B01D1012316E093
:1013400011E0C0460C4B1B79DBB2DBB25BB2002B69
:10135000F8DA094B7A681278DA717B6801337B60BE
:101360003B68013B3B603B68002BEAD10023181C23
:10137000BD4602B080BDC04600A0064080B582B028
:1013800000AF344B1B79DBB21A1C2023134047D02B
:10139000304B304A1279D2B220218A43D2B21A712C
:1013A0002C4BDB79DAB2FB1D1A702B4B1B68181C17
:1013B000FFF718FD031C022B11D1274B1A68FB1DE8
:1013C0001B78101C191CFFF7A7FC244B181C0221CA
:1013D000FFF7ACFFFB1D181CFFF790FF20E0FB1D83
:1013E000181CFFF78BFF1C4B1A68BB1D101C191C27
:1013F000FFF7C6FCBB1D1B786F2B06D1FB1D1B78AE
:101400006E2B02D1164B01221A70BB1D1B786F2B5D
:1014100006D1FB1D1B78662B02D1114B00221A70DE
:101420000C4B1B79DBB2DBB25BB2002B06DB094B4A
:101430001B79DBB21A1C4023134007D0054B054A29
:101440001279D1B27F220A40D2B21A71BD4602B0DF
:1014500080BDC04600A006400CF1FF1F04F0FF1F36
:1014600000F0FF1F90B587B002AFF860B9607A60F6
:101470003B6005483968FA68BB687C680094FFF7F0
:101480004BF900BEFDE7C0464818000080B584B0A7
:1014900000AFF860B9607A60BB68032B07D91048C9
:1014A000DA23191CFF310F4A0F4BFFF7DBFF7B6874
:1014B000002B12D0F968BA6884235B0012018A18E5
:1014C000D3181B68802252041A43F868B968842331
:1014D0005B0009014118CB181A60BD4604B080BDFD
:1014E000881800009C1A0000A018000080B582B087
:1014F00000AF78607B68002B07D111481E23191CB0
:10150000FF31104A104BFFF7ADFF7B6819687B680D
:101510001B791A1C80235B04081C111C1A1CFFF782
:10152000B5FF7B689B68002B07D07B689A687B6857
:10153000DB687968081C191C9047BD4602B080BD65
:10154000CC1800008C1A00004419000080B500AFD0
:10155000034B1B68181CFFF7C9FFBD4680BDC04682
:10156000A0F0FF1F80B500AF034B5B68181CFFF7AE
:10157000BDFFBD4680BDC046A0F0FF1F80B500AFD7
:10158000034B9B68181CFFF7B1FFBD4680BDC046EA
:10159000A0F0FF1F80B500AF034BDB68181CFFF7FE
:1015A000A5FFBD4680BDC046A0F0FF1F80B582B03C
:1015B00000AF786039607B68DB78DBB21A1C1023DF
:1015C000134006D17B689B78DBB21A1C20231340A2
:1015D00007D00A4B1B6879683A68081C111C9847A9
:1015E00006E0074B1B6879683A68081C111C98478D
:1015F000BFF34F8FBD4602B080BDC046B8F0FF1F9D
:10160000BCF0FF1F80B500AF044B1B68044A101CE0
:10161000191CFFF7CBFFBD4680BDC046B0F0FF1FD1
:101620000060064080B500AF044B5B68044A101CA4
:10163000191CFFF7BBFFBD4680BDC046B0F0FF1FC1
:101640000070064080B500AF044B1A68044B1B685D
:101650000449081C191C9047BD4680BDC4F0FF1FFB
:10166000C0F0FF1F00A0064080B582B000AF7860D8
:1016700039607B681B78DBB21A1C102313400AD038
:101680000B4B1B680B4A396889008A587968081C1B
:10169000111C984709E0084B1B68064A3968890005
:1016A0008A587968081C111C9847BD4602B080BD55
:1016B000D0F0FF1FC8F0FF1FD4F0FF1F80B500AFB0
:1016C000084B1B68002B06D107488123D900074A25
:1016D000074BFFF7C7FE074B181C0021FFF7C4FF9D
:1016E000BD4680BDC8F0FF1FF0190000B81A000009
:1016F0006C1A00000060074080B500AF084B5B68C3
:10170000002B06D107488223D900074A074BFFF771
:10171000A9FE074B181C0121FFF7A6FFBD4680BD9F
:10172000C8F0FF1FF0190000D01A00007C1A00005A
:101730000070074080B500AF044B1A68044B5B682B
:101740000449081C191C9047BD4680BDE4F0FF1FEA
:10175000D8F0FF1F00B0064080B500AF044B1A68F8
:10176000044B9B680449081C191C9047BD4680BD6A
:10177000E4F0FF1FD8F0FF1F00C0064080B500AFA7
:10178000034A88235B010021D150BD4680BDC0467D
:1017900000700440084B10B5041C002B02D000213F
:1017A00000E000BF054B1868836A002B00D0984703
:1017B000201C00F043F8C04600000000EC1A0000B6
:1017C00070B50E4B0E4D0024ED1AAD101E1CAC4230
:1017D00004D0A300F35898470134F8E700F0B8F9B3
:1017E000084B094D0024ED1AAD101E1CAC4204D06C
:1017F000A300F35898470134F8E770BD701B000050
:10180000701B0000701B0000741B000010B500234B
:10181000934203D0CC5CC4540133F9E710BD031CE0
:101820008218934202D019700133FAE770470023FF
:10183000C25C0133002AFBD1581E7047FEE7C04648
:101840000102030405000000415353455254204552
:1018500052524F52202220257320223A2066696C72
:10186000652022257322204C696E65202225642282
:101870002066756E6374696F6E206E616D652022DF
:10188000257322200A0000002E2E2F6472697665CF
:1018900072732F66736C5F646D612E6800000000C8
:1018A0006368616E6E656C203C2046534C5F464514
:1018B00041545552455F444D414D55585F4D4F443D
:1018C000554C455F4348414E4E454C002E2E2F64EB
:1018D0007269766572732F66736C5F646D612E63D7
:1018E00000000000696E7374616E6365203C2041E6
:1018F000525241595F53495A4528735F646D6142A2
:1019000061736573290000006368616E6E656C2009
:101910003C2046534C5F464541545552455F444D2B
:10192000415F4D4F44554C455F4348414E4E454CF9
:1019300000000000636F6E66696720213D204E55F0
:101940004C4C000068616E646C6520213D204E5552
:101950004C4C00007372634164647220213D204E40
:10196000554C4C00646573744164647220213D20C1
:101970004E554C4C00000000287372635769647424
:1019800068203D3D20315529207C7C2028737263DE
:101990005769647468203D3D20325529207C7C20A5
:1019A000287372635769647468203D3D203455295B
:1019B0000000000028646573745769647468203DF2
:1019C0003D20315529207C7C20286465737457693B
:1019D000647468203D3D20325529207C7C20286499
:1019E0006573745769647468203D3D20345529003F
:1019F0002E2E2F647269766572732F66736C5F7317
:101A000070692E6300000000696E7374616E636517
:101A1000203C2041525241595F53495A4528735F37
:101A2000737069426173657329000000636F6E66AD
:101A3000696720262620737263436C6F636B5F486F
:101A40007A000000636F6E666967000078666572F1
:101A50000000000068616E646C65000068616E647F
:101A60006C6520262620786665720000735F7370AF
:101A70006948616E646C655B305D0000735F737014
:101A80006948616E646C655B315D0000444D415F87
:101A900048616E646C65495251000000444D415FDD
:101AA000436C6561724368616E6E656C53746174FA
:101AB0007573466C61677300535049305F447269B7
:101AC00076657249525148616E646C65720000001F
:101AD000535049315F447269766572495251486189
:101AE0006E646C65720000004300000008F0FF1F88
:101AF00000000000000000000000000000000000E6
:101B000000000000000000000000000000000000D5
:101B100000000000000000000000000000000000C5
:101B200000000000000000000000000000000000B5
:101B300000000000000000000000000000000000A5
:101B40000000000000000000000000000000000095
:101B5000F8B5C046F8BC08BC9E467047F8B5C0460C
:081B6000F8BC08BC9E4670476A
:081B680008E9FF7F0100000005
:041B70003904000034
:041B74001104000058
:101B7800010000000D0A000000000000F01A00003B
:101B8800101B0000301B00000000000000000000D7
:101B98000000000000000000E81A0000000000003B
:101BA800000000000000000000000000000000002D
:101BB800000000000000000000000000000000001D
:101BC800000000000000000000000000000000000D
:0C1BD80000000000000000000000000001
:04000003000004E90C
:00000001FF
