:1000000000300020E904000035050000390500003B
:1000100000000000000000000000000000000000E0
:100020000000000000000000000000003D0500008E
:100030000000000000000000410500005D0D000010
:10004000690C00004D050000510500005505000039
:1000500031050000310500003105000031050000C8
:10006000590500005D050000610500006505000000
:10007000A90D00006D0500007105000031050000AC
:100080003105000031050000310500003105000098
:100090003105000031050000310500003105000088
:1000A0003105000031050000310500003105000078
:1000B0003105000031050000310500003105000068
:10040000FFFFFFFFFFFFFFFFFFFFFFFFFEFFFFFFFD
:1004100010B5064C2378002B07D1054B002B02D0DA
:10042000044800E000BF0123237010BD6CF0FF1FE3
:1004300000000000781F000008B5084B002B03D017
:100440000748084900E000BF07480368002B03D0B5
:10045000064B002B00D0984708BDC04600000000A6
:10046000781F000070F0FF1F68F0FF1F0000000001
:10047000164B002B00D1144B9D46402292029A1A33
:10048000924600218B460F461348144A121A01F077
:10049000CBFA0F4B002B00D098470E4B002B00D00F
:1004A00098470020002104000D000D48002802D0CC
:1004B0000C4800E000BF01F091FA2000290000F094
:1004C0003DFC01F075FAC046000008000030002035
:1004D00000000000000000006CF0FF1FF0F0FF1FA4
:1004E000000000000000000072B60A480A490160DE
:1004F0000A6882F30888094880470949094A0A4B73
:100500009B1A03DD043BC858D050FBDC62B6074899
:100510008047000008ED00E000000000A119000085
:10052000A01F000000F0FF1F6CF0FF1F710400000F
:10053000104800471048004710480047104800473F
:10054000104800471048004710480047104800472F
:10055000104800471048004710480047104800471F
:10056000104800471048004710480047104800470F
:10057000104800473105000035050000390500002E
:100580003D050000410500005D0D00003511000033
:1005900089110000DD1100003112000085120000F9
:1005A000C11200003D16000089160000211600004F
:1005B000311900004D190000002934D00123002218
:1005C00010B488422CD301242407A14204D28142D2
:1005D00002D209011B01F8E7E400A14204D28142E2
:1005E00002D249005B00F8E7884201D3401A1A435F
:1005F0004C08A04202D3001B5C0822438C08A04296
:1006000002D3001B9C082243CC08A04202D3001B4B
:10061000DC082243002803D01B0901D00909E3E7C5
:10062000101C10BC7047002801D00020C04307B444
:10063000024802A14018029003BDC046D900000044
:100640000029F0D003B5FFF7B9FF0EBC4243891A69
:100650001847C046002941D010B4041C4C40A446A1
:1006600001230022002900D54942002800D540423C
:1006700088422CD301242407A14204D2814202D211
:1006800009011B01F8E7E400A14204D2814202D231
:1006900049005B00F8E7884201D3401A1A434C082E
:1006A000A04202D3001B5C0822438C08A04202D364
:1006B000001B9C082243CC08A04202D3001BDC088C
:1006C0002243002803D01B0901D00909E3E7101CCD
:1006D0006446002C00D5404210BC7047002806D06C
:1006E00003DB0020C043400801E08020000607B47F
:1006F000024802A14018029003BDC0461900000044
:100700000029EBD003B5FFF7A7FF0EBC4243891ABF
:100710001847C0467047C046F0B5474680B4244CE1
:1007200082B0267888461F1C0125002E07D1227032
:10073000032A09D0062A21D00425012A1ED0281C0C
:1007400002B004BC9046F0BD6060684600F0BEFE9A
:10075000434669463A1C6068009300F0DDFD63681B
:100760000822D97800250A43DA70D97804220A438E
:10077000DA70104BA360104BE360E0E760606846FE
:1007800001F064F8434669463A1C6068009300F043
:10079000AFFF63680822D97800250A43DA70D97858
:1007A00004220A43DA70054BA360054BE360C6E7F9
:1007B00088F0FF1F011500003D15000081180000A2
:1007C0009D1800000FB4F0B556464D465F464446AE
:1007D000F0B4C74E99B0229933788946002B00D1E6
:1007E000DBE123AB069303930023CB56002B00D110
:1007F000D6E1002104918B460D1C0291252B74D16A
:1008000000274B465A78581C54B2211C303909290C
:1008100064D98246904699462E2C00D103E1642C7F
:1008200000D182E0692C00D17FE02023414699432A
:100830004BB24246462B00D1A1E16F3AD2B290466C
:10084000582B00D16DE1012A00D86AE1622C00D159
:100850009FE1752C00D199E1632C00D1D9E1732C73
:1008600000D0A0E10399039A0B68043205929946DF
:10087000002B00D1DFE1181C01F0DEF8029003909C
:10088000B84200DBDEE12023041C98463378414661
:100890000B91002B04D070680BA90122B368984714
:1008A0000134A742F2D103995F447F1A4A46137874
:1008B000002B00D1C2E1D41B5BB20C933378002B28
:1008C00004D070680CA90122B36898470137E35D32
:1008D000002BF1D10599BB46039112E0BB00DF1953
:1008E0007F00303F3F19031C8CE707933378002BC0
:1008F00004D0706807A90122B368984701218B448E
:10090000CA46514601230122CB569146D144002BC1
:1009100000D073E7584619B03CBC90469946A246B1
:10092000AB46F0BC08BC04B018470399039A0431E5
:1009300012680EAB009100210192994619700125B1
:10094000002A00D1D6E051464B46A246B946039153
:10095000019C1F1C05E07B552B1C0135002814D081
:10096000041C201C0A21FFF775FE83001B185B0086
:10097000E41A30231A1B231C3033002CEBDA131C2F
:100980007B552B1C01350028EAD1029303993B1CAF
:10099000029A4F46544699468A4643466F3B151C79
:1009A000DBB24D449846582C00D1BFE0782C00D1E2
:1009B00005E101234146012940D9622C3ED0009A2D
:1009C0000392752C3AD0029A974213DD2023141C0F
:1009D0009846337841460891002B04D0706808A9E6
:1009E0000122B36898470134A742F2D102995F44CB
:1009F000791A8B46002D00D183E72B78002B00D18C
:100A00007FE75C465BB209933378013D002B04D04D
:100A1000706809A90122B36898472B780134002B2C
:100A2000F0D1A3466DE79B785CB29846231C303B1F
:100A3000092B6AD9031C01339A46F0E60099009A03
:100A40000431039115686F2C5CD04BDD702C56D0AF
:100A5000752C01D10A2104910EA9002289460A7041
:100A6000002D37D0B84601242F1C049D002B1CD12B
:100A700000E0071C291C381CFFF79EFD2B1C43437C
:100A8000FB1A191C1A1C30315732092B00D80A1CCA
:100A900049460A55231C01340028EAD147460293EF
:100AA000191C0D1C4D448EE7071C291C381CFFF730
:100AB00083FD2B1C4343FB1A191C1A1C303137329F
:100AC000092B00D80A1C4B461A55231C0134002858
:100AD000EAD1E3E76B46393330221A7001230293DF
:100AE000191CDEE7622CB7D102210491B4E7C0469D
:100AF00088F0FF1F30225A70012202924DE7102227
:100B00000492A9E708220492A6E74B460233013378
:100B10001A7854B2211C30390929F8D990469A46DE
:100B20007DE6039B0093582C00D03FE70099009B83
:100B30008C461A6804218C4400230EA989460B7048
:100B4000002A00D18BE04D460123A14600E00A1C9B
:100B500011090801121A141C101C30343730092AEC
:100B600000D8201CE8541A1C01330029EFD1634639
:100B700002924C460093A9460123029946E043465F
:100B80006F3B039ADBB2984600920CE7039B0093FD
:100B90000FE7039A012300920CE701204042BAE6D6
:100BA00000229346B6E633780D94002B04D070688B
:100BB0000DA90122B368984701218B44A1E6009951
:100BC000009B8C461A6804218C4400230EA9894698
:100BD0000B70002A38D04D460123A14600E00A1CC4
:100BE00011090801121A141C101C30345730092A3C
:100BF00000D8201CE8541A1C01330029EFD16146AB
:100C00004C4600910292A9460023111C0D1C4D4434
:100C1000D0E603990023CB56039C0A93337804341F
:100C2000002B04D070680AA90122B36898470121FB
:100C30008B44039465E6059A039262E6059BBB46E6
:100C400003935EE65F4631E66246009200236A4601
:100C500030213932117001220292111CD6E761460F
:100C600000910123F3E7C046054A84235B00D05876
:100C7000802149040143D150024B01221A70704770
:100C80000080004098F0FF1F0B4B802219689200F3
:100C900011431960094B0A495868084010435860CD
:100CA000986801400A439A60064A074B0720D158CA
:100CB0008143D1507047C0463880044000900440C2
:100CC000FFF8FFFF007004401010000008B5104945
:100CD000104B114A1148D15000F064F9104B114AE1
:100CE00038211A60104B00201A788A431A700F4A74
:100CF0000021073200F0DCF900220021022000F080
:100D00000FF90B4800F0E6F80A4A0B4B1A6008BDD1
:100D1000000003104410000000700440601A00003E
:100D2000ECF0FF1F00127A0000400640541A000049
:100D30004C1A0000006CDC0204F0FF1F00B583B009
:100D4000FFF7A2FFFFF7C2FF00F010F86846073078
:100D50005323037000F01CF8FEE7C046024B1A68EC
:100D600001321A607047C046E4F0FF1F08B500F07A
:100D7000FBFD054B802252011A60044B2022D978DA
:100D800000200A43DA7008BD00E100E000A0064040
:100D9000044A13795BB2002BFBDA0278014B002086
:100DA000DA71704700A006400E4A202311790B42E9
:100DB0000AD0117999431171D179C9B213795BB213
:100DC000002BFBDA074BD971064B1A7952B2002A75
:100DD00002DB1B795A0604D5024B7F211A790A409F
:100DE0001A71704700A0064008B50348E121034A84
:100DF000034B00F081F9C046A41A0000781A0000E5
:100E0000BC1A000038B52D4A2D4BD358D90313D541
:100E10002C4CA3795A062CD52B4B186800284AD0A5
:100E200021791F2529400131FFF7C6FB63791D4059
:100E300018356843400838BD224B5A78910718D4BA
:100E40009A7900209106F6D49A79D10613D51F4BD2
:100E50001B680020002BEED01A4AD178D2784906C0
:100E6000890FD20949008918194A4900885A5843FC
:100E7000E1E70020DFE7144A1268002A1BD0197846
:100E800058788906490F8006131C800FCB40002834
:100E9000DFD0062909D0072905D1181C0C21FFF73E
:100EA0008BFB031CD5E75B09D3E7181C1421FFF764
:100EB00083FB031CCDE7FFF797FFC046007004409B
:100EC0000410000000400640ECF0FF1F00F0FF1F80
:100ED000681A00000D4B41680D4A30B599500478EE
:100EE0000C4A8021490224049D580C400A4929409B
:100EF000214399504178C022120389041C68114093
:100F0000064A22400A431A6030BDC04600700440C1
:100F10004410000004100000FFFFFEFFFFFFF3FF7E
:100F200070B51F4B9C799D792407EEB21D7AA40FF2
:100F30002D076D0FAA420AD0F50722D4184B0E26B2
:100F40001D7A520032402F26B5432A431A72144BA1
:100F500001225E78151C96430D40321C2A435A70BC
:100F60001A780325AA4302431A70012C01D0830783
:100F700005D50B480122837913408B42FBD1002019
:100F800070BD012C02D01B789D07D7D5044E0125DA
:100F90007378AB437370B3791D42FCD1CEE7C04682
:100FA000004006400368164A30B50021934203D939
:100FB000144A202193421CD9134B0F241A783C2544
:100FC000A243047922431A701A785F24224084795C
:100FD00022431A700D4A5478AC4345792C4321437F
:100FE00051704179002903D01B785BB2002B02DBE2
:100FF00030BD1021E0E7022193791942FCD0F7E7D8
:101000009798000000127A00005006400040064009
:1010100010B500293BD0214C022263781C20934359
:10102000637023783B221340802213432370A379FB
:101030001A4A0340082BFAD1537940208343537155
:10104000141C2020A379154A1842FBD148781F238D
:1010500018401071547988789C431840231C03432E
:10106000537110790B78402103430B4313714020D7
:1010700093790A491842FBD04A7940231343DBB2E3
:101080004B7120228B791A42FCD0002010BD0448FD
:101090000449054A054B00F02FF8C04600400640C1
:1010A000A41A000064050000901A0000D41A000081
:1010B00008B5002A0FD0081C111CFFF7A9FF094929
:1010C0003F220B7813400B700C228B7913400C2BB2
:1010D000FBD1002008BD04480449054A054B00F037
:1010E0000BF8C04600400640A41A00000D060000A0
:1010F000EC1A0000D41A000030B5051C0C1C83B09B
:101100000092191C03482A1C231CFFF75BFB00BE3E
:10111000FDE7C046001B00001E2108B50248FF3154
:10112000024A034BFFF7E8FF5C1B0000C41C0000F1
:10113000981B000008B5104B1868002812D00279DF
:101140000368032A10D812019B180933FF3319686A
:10115000802252040A431A608368002B01D0C168C0
:10116000984708BDFFF7D8FFDA210448FF31044A49
:10117000044BFFF7C1FFC0469CF0FF1F801C00001E
:10118000401B0000981C000008B5104B5868002850
:1011900012D002790368032A10D812019B18093370
:1011A000FF331968802252040A431A608368002BB7
:1011B00001D0C168984708BDFFF7AEFFDA210448A7
:1011C000FF31044A044BFFF797FFC0469CF0FF1F16
:1011D000801C0000401B0000981C000008B5104B4C
:1011E0009868002812D002790368032A10D81201E7
:1011F0009B180933FF331968802252040A431A608E
:101200008368002B01D0C168984708BDFFF784FFB1
:10121000DA210448FF31044A044BFFF76DFFC04652
:101220009CF0FF1F801C0000401B0000981C000069
:1012300008B5104BD868002812D002790368032A39
:1012400010D812019B180933FF3319688022520409
:101250000A431A608368002B01D0C168984708BD13
:10126000FFF75AFFDA210448FF31044A044BFFF725
:1012700043FFC0469CF0FF1F801C0000401B000085
:10128000981C000008B50A480A4B1968C378DA06AA
:1012900002D483789A0606D5074B05481B68984701
:1012A000BFF34F8F08BD054B1B689847F8E7C04652
:1012B00000600640ACF0FF1FB4F0FF1FB8F0FF1F46
:1012C00008B50A480A4B5968C378DA0602D483780D
:1012D0009A0606D5074B05481B689847BFF34F8F02
:1012E00008BD054B1B689847F8E7C04600700640EC
:1012F000ACF0FF1FB4F0FF1FB8F0FF1F08B50348A4
:101300009021034A034BFFF7F7FEC046341D00004F
:10131000F41C0000541D0000F0B54D465F465646D3
:101320004446F0B487B0059004919146002900D15D
:10133000B2E009688846002900D1B3E08A000E1C9B
:10134000002300219246042403930291484651460B
:10135000FFF732F985B283462B1C002D00D1012303
:101360009BB201930121002D02D05B461904090CA8
:1013700061434846FFF720F94146471A0221002DF4
:1013800003D05A461104090C013161434846FFF766
:1013900013F94346181A019B019901339AB20B1CA9
:1013A000874200D9131C9AB2B84200D9381C02995E
:1013B0000B1CB04200D8131C9BB20293039DB04299
:1013C00000D8251C0395864200D9061C0134C2446E
:1013D000212CBBD140466421FFF7EEF843001818DA
:1013E000B04207D2324807B03CBC90469946A2466C
:1013F000AB46F0BD2F4B059C9C4201D0FFF77EFF12
:101400002D4B80221968D2000A431A60E3780C221F
:101410009343E3702B1F032B04D8059C0223E27A2D
:101420001343E372234B1F22997A013D91430D43ED
:10143000E9B29972987A029C9043210A021C0A43ED
:101440001A70E2B25A709A78049C13239A43237953
:10145000002B03D010210B431A43D2B2154B9A70C4
:101460001978202291431970049C19786079400101
:1014700002400A431A70DB78A279DBB2002A01D05D
:1014800008221343049CE279002A01D0042213436A
:10149000084A0020D370A6E70848D721084A094B1C
:1014A000FFF72AFE0548D821054A074BFFF724FE1F
:1014B000B504000000A0064034800440341D000044
:1014C000D41C0000D41A0000801D000008B50028BC
:1014D00008D0E1235B020360002303714371837131
:1014E000C37108BD56210348FF31034A034BFFF780
:1014F00003FEC046341D0000081D0000D41A000081
:1015000010B500290CD08C18002A08D003795BB2E2
:10151000002BFBDA0B780131C371A142F6D110BD6B
:1015200002480349034A044BFFF7E6FD341D00005F
:1015300009020000E01C0000781D0000F0B54F46D5
:101540004646C0B483B0002957D089469046002A49
:1015500024D0012320260827042102229C460FE0E4
:10156000057943791B022B433D1C1D4018D10C1CEF
:101570001C4024D1151C1D402BD164461C4232D185
:1015800004793440ECD0C3794C4623700124644282
:101590000123A04499444346002BF1D1002009E0E7
:1015A00001AB1C701A780132D2B21A700823037191
:1015B0009720C00003B00CBC90469946F0BD6B4626
:1015C0005D715A790132D2B25A71042303710E4807
:1015D000F0E76B469C719A790132D2B29A7102237C
:1015E00003710A48E6E76B46DD71DA790132D2B25F
:1015F000DA71012303710648DCE78621054889007A
:10160000054A064BFFF778FDB9040000BA04000054
:10161000BB040000341D0000201D0000781D0000E8
:1016200008B5034B03481968034B1B68984708BD6E
:10163000BCF0FF1F00A00640C0F0FF1F08B50B4B19
:10164000196800290BD00A480378DA0603D4094B3D
:101650001B68984708BD084B1B689847FAE781212B
:101660000648C900064A074BFFF746FDCCF0FF1FAE
:1016700000600740C4F0FF1FC8F0FF1FD01D00002E
:10168000541E0000341E000008B50B4B5968002999
:101690000BD00A480378DA0603D4094B1B68984735
:1016A00008BD084B1B689847FAE782210648C90025
:1016B000064A074BFFF720FDCCF0FF1F00700740E4
:1016C000C4F0FF1FC8F0FF1FD01D00006C1E0000FB
:1016D000441E000008B50348A921034A034BFFF745
:1016E0000BFDC046BC1E0000A81E0000D41E00005A
:1016F000F0B557464E464546E0B481460F1C151CD2
:10170000002900D189E00C68002C00D17FE0210184
:10171000101CFEF751FF86B2002E21D00004010BF1
:10172000102252189246281CFEF746FF001B8046E6
:101730005146281CFEF740FF231A984502D901366E
:10174000B6B29846201C6421FEF736FF42001318FB
:1017500098450AD934481CBC90469946A246F0BD2B
:1017600020239A4610210126DDE74946002907D0AB
:101770002E4B994547D02E4B994546D0FFF7AAFFEF
:1017800000222C4B9200D2582B49130C12045B18E8
:10179000120C012019689040021C0A431A604A4644
:1017A000D3780C2249469343CB700B781F22934386
:1017B000320A1343F6B20B704E708B7839791322CC
:1017C0009343002903D010220A431343DBB24A4655
:1017D0009370797912782023490119409A430B1CA0
:1017E000134349460B70CB78BA79DBB2002A01D09B
:1017F00008221343FA79002A01D0042213434A46EF
:10180000D3700020A7E70122BBE70222B9E70B480B
:10181000D5210B4A0B4BFFF76FFC0848D421084A2F
:10182000094BFFF769FCC046F503000000B0064015
:1018300000C00640F01E000000700440BC1E000006
:101840009C1E0000801D0000D41A000008B500286E
:1018500008D0E1235B0203600023037143718371AD
:10186000C37108BD5E210348FF31034A034BFFF7F4
:1018700043FCC046BC1E0000841E0000D41A0000B9
:1018800010B58C18002A08D003795BB2002BFBDA64
:101890000B780131C371A142F6D110BDF0B54746B6
:1018A00080B4002930D088469446002A1FD02025D5
:1018B00008260427022101220BE0047943791B0248
:1018C00023431E4215D11F4217D1194217D11A4284
:1018D00017D103791D42F0D0C37944462370012407
:1018E00064420123A44498446346002BF1D10020B4
:1018F00000E0094804BC9046F0BD0848FAE70848F3
:10190000F8E7FD208000F5E78F2106488900064AA8
:10191000064BFFF7F1FBC046F1030000F2030000A5
:10192000F3030000BC1E0000FC1E0000781D000038
:1019300008B5034B03485968034B1B68984708BD1B
:10194000D8F0FF1F00B00640D4F0FF1F08B5034BCE
:1019500003489968034B1B68984708BDD8F0FF1FE0
:1019600000C00640D4F0FF1F08B5094A094B0A49D8
:10197000D05801408020C0040143D150FFF742FA03
:10198000E121031C490205480322FEF7C5FE08BDFC
:101990000070044004100000FFFFFFF300A00640A9
:1019A000024A882300215B01D15070470070044037
:1019B000084B10B5041C002B02D0002100E000BF32
:1019C000054B1868836A002B00D09847201C00F054
:1019D0003BF8C04600000000141F000070B50E4B1D
:1019E0000E4D0024ED1AAD101E1CAC4204D0A30015
:1019F000F35898470134F8E700F0BEFA084B094D58
:101A00000024ED1AAD101E1CAC4204D0A300F35804
:101A100098470134F8E770BD981F0000981F000038
:101A2000981F00009C1F0000031C8218934202D0E4
:101A300019700133FAE770470023C25C0133002AB2
:101A4000FBD1581E70470000FEE7C04601030000AE
:101A5000000001100702000000000000010000006B
:101A600000127A00000480008002DC020005B80544
:101A700080079508000A710B434C4F434B5F476545
:101A8000744D6367457874436C6B467265710000F2
:101A9000434C4F434B5F5365745062654D6F6465B3
:101AA000000000002E2E2F647269766572732F6617
:101AB000736C5F636C6F636B2E630000675F787499
:101AC000616C3046726571006D6367706C6C306379
:101AD0006C6B0000636F6E6669670000675F787407
:101AE000616C33324672657100000000434C4F4315
:101AF0004B5F426F6F74546F5065654D6F64650046
:101B0000415353455254204552524F5220222025D2
:101B10007320223A2066696C652022257322204CAE
:101B2000696E6520222564222066756E6374696F74
:101B30006E206E616D652022257322200A00000050
:101B4000444D415F436C6561724368616E6E656CC4
:101B5000537461747573466C616773002E2E2F6425
:101B60007269766572732F66736C5F646D612E6344
:101B700000000000696E7374616E6365203C204153
:101B8000525241595F53495A4528735F646D61420F
:101B9000617365732900000068616E646C652021C3
:101BA0003D204E554C4C00006368616E6E656C20A4
:101BB0003C2046534C5F464541545552455F444D89
:101BC000415F4D4F44554C455F4348414E4E454C57
:101BD00000000000636F6E66696720213D204E554E
:101BE0004C4C00007372634164647220213D204EAE
:101BF000554C4C00646573744164647220213D202F
:101C00004E554C4C00000000287372635769647491
:101C100068203D3D20315529207C7C20287372634B
:101C20005769647468203D3D20325529207C7C2012
:101C3000287372635769647468203D3D20345529C8
:101C40000000000028646573745769647468203D5F
:101C50003D20315529207C7C2028646573745769A8
:101C6000647468203D3D20325529207C7C20286406
:101C70006573745769647468203D3D2034552900AC
:101C80002E2E2F647269766572732F66736C5F6493
:101C90006D612E68000000006368616E6E656C20E7
:101CA0003C2046534C5F464541545552455F444D98
:101CB000414D55585F4D4F44554C455F4348414E4B
:101CC0004E454C00444D415F48616E646C6549521D
:101CD000510000004C505343495F496E6974000045
:101CE0004C505343495F5772697465426C6F636B24
:101CF000696E67004C505343495F476574496E7382
:101D000074616E63650000004C505343495F476542
:101D10007444656661756C74436F6E666967000034
:101D20004C505343495F52656164426C6F636B6909
:101D30006E6700002E2E2F647269766572732F66AF
:101D4000736C5F6C707363692E63000068616E640E
:101D50006C650000696E7374616E6365203C2041A0
:101D6000525241595F53495A4528735F6C707363EF
:101D70006942617365732900646174610000000049
:101D8000636F6E6669672D3E62617564526174654A
:101D90005F4270730000000072696E67427566668C
:101DA00065720000786665720000000078666572F2
:101DB0002D3E6461746153697A65000078666572CE
:101DC0002D3E646174610000636F756E74000000E5
:101DD0002E2E2F647269766572732F66736C5F7333
:101DE00070692E6300000000696E7374616E636534
:101DF000203C2041525241595F53495A4528735F54
:101E0000737069426173657329000000636F6E66C9
:101E1000696720262620737263436C6F636B5F488B
:101E20007A00000068616E646C6520262620786662
:101E300065720000735F73706948616E646C655B06
:101E4000305D0000735F73706948616E646C655B40
:101E5000315D0000535049305F44726976657249C4
:101E6000525148616E646C657200000053504931F4
:101E70005F44726976657249525148616E646C655F
:101E800072000000554152545F47657444656661B5
:101E9000756C74436F6E666967000000554152545B
:101EA0005F496E6974000000554152545F47657484
:101EB000496E7374616E6365000000002E2E2F64FE
:101EC0007269766572732F66736C5F756172742EBA
:101ED00063000000696E7374616E6365203C207559
:101EE0006172744172726179436F756E74000000A3
:101EF000000000000B0034100C0034105541525407
:101F00005F52656164426C6F636B696E67000000CD
:101F10004300000008F0FF1F000000000000000068
:101F200000000000000000000000000000000000B1
:101F300000000000000000000000000000000000A1
:101F40000000000000000000000000000000000091
:101F50000000000000000000000000000000000081
:101F60000000000000000000000000000000000071
:101F70000000000000000000F8B5C046F8BC08BC36
:101F80009E467047F8B5C046F8BC08BC9E467047F0
:081F9000E0E4FF7F0100000006
:041F98003904000008
:041F9C00110400002C
:101FA000008000000000400100000000181F000039
:101FB000381F0000581F0000000000000000000053
:101FC0000000000000000000101F000000000000E2
:101FD0000000000000000000000000000000000001
:101FE00000000000000000000000000000000000F1
:101FF00000000000000000000000000000000000E1
:0C200000000000000000000000000000D4
:044890000000000024
:04000003000004E90C
:00000001FF
